:060000000A128A11122809
:10000800FE000308F0000408F1000A08F200831259
:1000180003137F08F3000A168A11932D0A168A1112
:10002800DB2D00308A000408840A8207003420345B
:100038004D34433434343034533445340A34203462
:100048004C34533441343034383400345334573416
:100058003134203474346F340A3453347434613492
:100068007234743421340034203420344C346934EC
:100078006E3465340A3446346F346C346C346F34FF
:100088007734003420347234693467346834743413
:100098003634203420340034723469346734683498
:1000A8007434313420342034003472346934673481
:1000B800683474343234203420340034723469346F
:1000C8006734683474343334203420340034723460
:1000D8006934673468347434343420342034003458
:1000E80072346934673468347434353420342034D5
:1000F80000347234693467346834743437342034E3
:1001080020340034203466346F34723477346134E8
:100118007234643400346C34653466347434313485
:100128002034203400346C3465346634743432340A
:100138002034203400346C346534663474343334F9
:100148002034203400346C346534663474343434E8
:100158002034203400346C346534663474343534D7
:100168002034203400346C346534663474343634C6
:100178002034203400346C346534663474343734B5
:100188002034203400347234693467346834743469
:10019800203420340034733474346F347034203491
:1001A800203400346C34653466347434203420349C
:1001B800003444346F346E3465342134003474347C
:1001C800753472346E34003483120313AB00031099
:1001D800003003180130AC00031000300318013060
:1001E800AD00A2010314A20D031000300318013062
:1001F800A3003C08A501A5073B08A401A4070130FA
:100208000A168A1165270A128A1183120313A2019A
:100218000314A20DA3010314A30D3E08A501A5070D
:100228003D08A401A40702300A168A1165270A129C
:100238008A11A12F0618212922296D298618252916
:1002480026296D29061929292A296D2986192D2972
:100258002E296D29061E312932296D29861A35293C
:1002680036296D29851839293A296D29851A3D2994
:100278003E296D290310003003180130A200031035
:10028800003003180130A3005830A4000230A50044
:1002980002300A168A1165270A128A1103100030E3
:1002A8000318013083120313A200A3010314A30D42
:1002B8005830A4000230A50001300A168A116527BB
:1002C8000A128A116C300A168A114B250A128A11F1
:1002D8005D2F061870297129BC298618742975297B
:1002E800BC29061978297929BC29861D7C297D29EC
:1002F800BC29061A80298129BC29861A84298529BE
:10030800BC29851888298929BC29851A8C298D2911
:10031800BC290310003003180130A200031000307C
:1003280003180130A3005830A4000230A5000230A1
:100338000A168A1165270A128A1103100030031859
:10034800013083120313A200A3010314A30D583034
:10035800A4000230A50001300A168A1165270A1286
:100368008A116C300A168A114B250A128A115D2FE0
:100378000618BF29C0290B2A8618C329C4290B2AA5
:100388000619C729C8290B2A861DCB29CC290B2A6F
:10039800061ECF29D0290B2A861AD329D4290B2A3D
:1003A8008518D729D8290B2A851ADB29DC290B2A95
:1003B8000310003003180130A200031000300318A6
:1003C8000130A3005830A4000230A50002300A16FC
:1003D8008A1165270A128A110310003003180130A8
:1003E80083120313A200A3010314A30D5830A40021
:1003F8000230A50001300A168A1165270A128A11EF
:100408006C300A168A114B250A128A115D2F0618BC
:100418000E2A0F2A5A2A8618122A132A5A2A061D21
:10042800162A172A5A2A861D1A2A1B2A5A2A061AEF
:100438001E2A1F2A5A2A861A222A232A5A2A851845
:10044800262A272A5A2A851A2A2A2B2A5A2A0310A0
:10045800003003180130A2000310003003180130E7
:10046800A300F430A4000130A50002300A168A1156
:1004780065270A128A11031000300318013083120D
:100488000313A200A3010314A30D5830A4000230E3
:10049800A50001300A168A1165270A128A11BC3094
:1004A8000A168A114B250A128A115D2F06185D2A31
:1004B8005E2AA92A861C612A622AA92A061D652A9B
:1004C800662AA92A861D692A6A2AA92A061A6D2A6D
:1004D8006E2AA92A861A712A722AA92A8518752AC3
:1004E800762AA92A851A792A7A2AA92A0310003095
:1004F80003180130A2000310003003180130A300D4
:10050800F430A4000130A50002300A168A116527CC
:100518000A128A11031000300318013083120313E2
:10052800A200A3010314A30D5830A4000230A500B3
:1005380001300A168A1165270A128A1175300A16BF
:100548008A114B250A128A115D2F0618AC2AAD2A8A
:10055800F82A8618B02AB12AF82A061DB42AB52A1C
:10056800F82A8619B82AB92AF82A061ABC2ABD2AEE
:10057800F82A861AC02AC12AF82A8518C42AC52A40
:10058800F82A851AC82AC92AF82A0310003003183D
:100598000130A2000310003003180130A30090308E
:1005A800A4000130A50002300A168A1165270A1234
:1005B8008A11031000300318013083120313A200BC
:1005C800A3010314A30D5830A4000230A500013084
:1005D8000A168A1165270A128A117D300A168A11AD
:1005E8004B250A128A115D2F0618FB2AFC2A472B75
:1005F800861CFF2A002B472B061D032B042B472B99
:100608008619072B082B472B061A0B2B0C2B472B6D
:10061800861A0F2B102B472B8518132B142B472BBF
:10062800851A172B182B472B03100030031801309D
:10063800A2000310003003180130A3002C30A400DE
:100648000130A50002300A168A1165270A128A119C
:10065800031000300318013083120313A200A30112
:100668000314A30D5830A4000230A50001300A1667
:100678008A1165270A128A1185300A168A114B25B4
:100688000A128A115D2F061C4A2B4B2B962B861CAF
:100698004E2B4F2B962B061D522B532B962B861920
:1006A800562B572B962B061A5A2B5B2B962B861AF2
:1006B8005E2B5F2B962B8518622B632B962B851A46
:1006C800662B672B962B0310003003180130A2000D
:1006D8000310003003180130A300C830A400003014
:1006E800A50002300A168A1165270A128A1103101A
:1006F80000300318013083120313A200A30103146E
:10070800A30D5830A4000230A50001300A168A1142
:1007180065270A128A118D300A168A114B250A128A
:100728008A115D2F0618992B9A2BE52B861C9D2B79
:100738009E2BE52B0619A12BA22BE52B8619A52BA1
:10074800A62BE52B061AA92BAA2BE52B861AAD2B6F
:10075800AE2BE52B8518B12BB22BE52B851AB52BC3
:10076800B62BE52B0310003003180130A20003104C
:10077800003003180130A3006430A4000030A50045
:1007880002300A168A1165270A128A1103100030EE
:100798000318013083120313A200A3010314A30D4D
:1007A8005830A4000230A50001300A168A116527C6
:1007B8000A128A1195300A168A114B250A128A11D3
:1007C8005D2F061CE82BE92B342C861CEC2BED2B1B
:1007D800342C0619F02BF12B342C8619F42BF52B1D
:1007E800342C061AF82BF92B342C861AFC2BFD2BEB
:1007F800342C8518002C012C342C851A042C052C3B
:10080800342C0310003003180130A200031000300C
:1008180003180130A3000030A4000030A500023006
:100828000A168A1165270A128A1103100030031864
:10083800013083120313A200A3010314A30D58303F
:10084800A4000230A50001300A168A1165270A1291
:100858008A119D300A168A114B250A128A115D2FBA
:10086800061C372C382C832C86183B2C3C2C832CCC
:1008780006193F2C402C832C8619432C442C832C9E
:10088800061A472C482C832C861A4B2C4C2C832C6C
:1008980085184F2C502C832C851A532C542C832CC0
:1008A8000310003003180130A200031000300318B1
:1008B8000130A3000030A4000030A50002300A1661
:1008C8008A1165270A128A110310003003180130B3
:1008D80083120313A200A3010314A30D5830A4002C
:1008E8000230A50001300A168A1165270A128A11FA
:1008F800A5300A168A114B250A128A115D2F06188F
:10090800862C872CD22C86188A2C8B2CD22C061954
:100918008E2C8F2CD22C8619922C932CD22C061E1E
:10092800962C972CD22C861E9A2C9B2CD22C851870
:100938009E2C9F2CD22C851AA22CA32CD22C0310CF
:10094800003003180130A2000310003003180130F2
:10095800A3005830A4000230A50002300A168A11FC
:1009680065270A128A110310003003180130831218
:100978000313A200A3010314A30DF430A400013053
:10098800A50001300A168A1165270A128A11AD30AE
:100998000A168A114B250A128A115D2F0618D52CC2
:1009A800D62C212D8618D92CDA2C212D0619DD2CD0
:1009B800DE2C212D8619E12CE22C212D061EE52C9A
:1009C800E62C212D861EE92CEA2C212D851CED2CE8
:1009D800EE2C212D851AF12CF22C212D031000303C
:1009E80003180130A2000310003003180130A300DF
:1009F8005830A4000230A50002300A168A11652773
:100A08000A128A11031000300318013083120313ED
:100A1800A200A3010314A30DF430A4000130A50023
:100A280001300A168A1165270A128A1136300A1609
:100A38008A114B250A128A115D2F0618242D252D9F
:100A4800702D8618282D292D702D06192C2D2D2D49
:100A5800702D8619302D312D702D061A342D352D17
:100A6800702D861E382D392D702D85183C2D3D2D65
:100A7800702D851A402D412D702D0310003003185C
:100A88000130A2000310003003180130A3005830D1
:100A9800A4000230A50002300A168A1165270A123E
:100AA8008A11031000300318013083120313A200C7
:100AB800A3010314A30D9030A4000130A500013058
:100AC8000A168A1165270A128A113F300A168A11F6
:100AD8004B250A128A115D2F0618732D742DBF2D10
:100AE8008618772D782DBF2D06197B2D7C2DBF2DCF
:100AF80086197F2D802DBF2D061A832D842DBF2D9D
:100B0800861E872D882DBF2D851C8B2D8C2DBF2DE6
:100B1800851A8F2D902DBF2D03100030031801303A
:100B2800A2000310003003180130A3005830A400BD
:100B38000230A50002300A168A1165270A128A11A6
:100B4800031000300318013083120313A200A3011D
:100B58000314A30D2C30A4000130A50001300A169F
:100B68008A1165270A128A1148300A168A114B25FC
:100B78000A128A115D2F0618C22DC32D0E2E861853
:100B8800C62DC72D0E2E0619CA2DCB2D0E2E861951
:100B9800CE2DCF2D0E2E061AD22DD32D0E2E861E1B
:100BA800D62DD72D0E2E851CDA2DDB2D0E2E851E6B
:100BB800DE2DDF2D0E2E0310003003180130A200A9
:100BC8000310003003180130A3005830A40002308D
:100BD800A50002300A168A1165270A128A11031025
:100BE80000300318013083120313A200A301031479
:100BF800A30DC830A4000030A50001300A168A11E0
:100C080065270A128A1151300A168A114B250A12D1
:100C18008A115D2F0618112E122E5D2E8618152E9C
:100C2800162E5D2E0619192E1A2E5D2E86191D2ECA
:100C38001E2E5D2E061A212E222E5D2E861A252E98
:100C4800262E5D2E851C292E2A2E5D2E851A2D2EE8
:100C58002E2E5D2E0310003003180130A200031061
:100C6800003003180130A3005830A4000230A5005A
:100C780002300A168A1165270A128A1103100030F9
:100C88000318013083120313A200A3010314A30D58
:100C98006430A4000030A50001300A168A116527C7
:100CA8000A128A115A300A168A114B250A128A1119
:100CB8005D2F0618602E612EAC2E8618642E652EC8
:100CC800AC2E0619682E692EAC2E86196C2E6D2E48
:100CD800AC2E061A702E712EAC2E861A742E752E16
:100CE800AC2E851C782E792EAC2E851E7C2E7D2E62
:100CF800AC2E0310003003180130A200031000309E
:100D080003180130A3005830A4000230A5000230B7
:100D18000A168A1165270A128A110310003003186F
:100D2800013083120313A200A3010314A30D0030A2
:100D3800A4000030A50001300A168A1165270A129E
:100D48008A112C300A168A114B250A128A115D2F36
:100D58000618AF2EB02EFB2E8618B32EB42EFB2EFF
:100D68000619B72EB82EFB2E8619BB2EBC2EFB2ECD
:100D7800061ABF2EC02EFB2E861AC32EC42EFB2E9B
:100D88008518C72EC82EFB2E851ECB2ECC2EFB2EEB
:100D98000310003003180130A200031000300318BC
:100DA8000130A3005830A4000230A50002300A1612
:100DB8008A1165270A128A110310003003180130BE
:100DC80083120313A200A3010314A30D0030A4008F
:100DD8000030A50001300A168A1165270A128A1107
:100DE80063300A168A114B250A128A115D2F0618DC
:100DF800FE2EFF2E5D2F8618022F032F5D2F06195A
:100E0800062F072F5D2F86190A2F0B2F5D2F061A25
:100E18000E2F0F2F5D2F861A122F132F5D2F851877
:100E2800162F172F5D2F851A1A2F1B2F5D2FA20142
:100E38000314A20D0310003003180130A3003C086E
:100E4800A501A5073B08A401A40701300A168A11C9
:100E580065270A128A1183120313A2010314A20D33
:100E6800A3010314A30D3E08A501A5073D08A4018D
:100E7800A40702300A168A1165270A128A11B530AA
:100E88000A168A114B250A128A115D2F5D2F5D2FD4
:100E98005D2F5D2F5D2F5D2F5D2F5D2F5D2F5D2FEA
:100EA8005D2F5D2F5D2F5D2F5D2F5D2F5D2F5D2FDA
:100EB8005D2F83120313061C622F632FA12F861C3C
:100EC800662F672FA12F061D6A2F6B2FA12F861D56
:100ED8006E2F6F2FA12F061E722F732FA12F861E24
:100EE800762F772FA12F851C7A2F7B2FA12F851E78
:100EF8007E2F7F2FA12F2B08FF3EA900FF3003185C
:100F08000030AA002A08803A803C031D8D2F29084A
:100F18002C02031C902F912F942FAA2FAA2F942FC5
:100F280083120313851A992F9A2F942F9B2F013020
:100F3800A9002908AC07A12FA12F831203132B089E
:100F48002C02031CA82FA92F1E29AA2F031000303A
:100F58000318013083120313AD000B302D02031C5C
:100F6800B62FB72FB92FD42FD42F0A128A15BE2126
:100F78000A128A11C830F4000030F5000A128A15E6
:100F880000200A128A11013083120313A9002908CC
:100F9800AD070B302D02031CD22FD32FB92FD42F1E
:100FA800080083120313A200F02F86173230F400D2
:100FB8000030F5000A128A1500200A128A118312DD
:100FC800031386133230F4000030F5000A128A1534
:100FD80000200A128A11F02F013083120313A20293
:100FE8002208FF3A031DF92FFA2FD92FFB2F0800EB
:020FF8000134C2
:101000000C28033083120313A1009730A000A00B1B
:101010000728A10B07280C280130F4020030031C1C
:10102000F503F502FF307506031D1828FF3074061E
:10103000031D1B281C2801281D2808007408831282
:101040000313A00004300310A00DFF3E031D23284E
:1010500030302005A1001D08CF3921049D007508FE
:10106000A1007408A00002300310A10CA00CFF3EE8
:10107000031D342820089B00080083120313A300DB
:101080000310003003180130A2000808A000200857
:10109000A2007908013A031D4E284F28BA282308D8
:1010A0000A168A1116250A128A157508F0390A16C9
:1010B0008A11F8240A128A1500300A168A110A25A4
:1010C0000A128A15063083120313A1003030A000E3
:1010D000A00B6828A10B6828640001300A168A1149
:1010E0000A250A128A15033083120313A1009730D0
:1010F000A000A00B7928A10B79287E288312031366
:1011000023080A168A1116250A128A1575088312F1
:101110000313A00003300310A00DFF3E031D8B2816
:101120000310200D0A168A11F8240A128A150030BD
:101130000A168A110A250A128A1506308312031329
:10114000A1003030A000A00BA328A10BA3286400AD
:1011500001300A168A110A250A128A1503308312F1
:101160000313A1009730A000A00BB428A10BB42852
:10117000B928EA288312031323080A168A111625B0
:101180000A128A1575080A168A11F8240A128A1595
:1011900000300A168A110A250A128A1506308312AF
:1011A0000313A1003030A000A00BD428A10BD42839
:1011B000640001300A168A110A250A128A150330C2
:1011C00083120313A1009730A000A00BE528A10B08
:1011D000E528EA2883120313220888000800031078
:1011E00000300318013083120313B00003100030E5
:1011F00003180130AF000A168A112F250A128A152A
:1012000010300A168A114B250A128A156430F40030
:101210000030F5000A128A1500200A128A151029DA
:1012200083120313051915291629102917290A30C5
:10123000F4000030F5000A128A1500200A128A15FF
:10124000212983120313051D26292729212928294D
:101250001F300A168A114B250A128A1501300A120C
:101260008A11D5270A128A15043083120313AE009F
:101270002E08B000932903300A128A11E8200A12BE
:101280008A1502300A128A11D5270A128A15C83027
:10129000F4000030F5000A128A1500200A128A159F
:1012A000C9300A168A114B250A128A15031000301C
:1012B0000318013083120313A20003100030031837
:1012C0000130A300F430A4000130A50002300A165A
:1012D0008A1165270A128A1503100030031801309D
:1012E00083120313A2000310003003180130A3007F
:1012F000F430A4000130A50001300A168A116527D8
:101300000A128A15832983120313851E88298929C5
:1013100083298B298B29851A8E298F298B2990293E
:101320000130B0029329B008031D972998293B2961
:101330009929A2010314A20D0310003003180130F3
:10134000A3000030A4000030A50001300A168A1165
:1013500065270A128A1583120313A2010314A20D32
:10136000A3010314A30D0030A4000030A500023037
:101370000A168A1165270A128A15080083120313B8
:101380000618C329C4290F2A8618C729C8290F2A75
:101390000619CB29CC290F2A8619CF29D0290F2A43
:1013A000061ED329D4290F2A861AD729D8290F2A0D
:1013B0008518DB29DC290F2A851ADF29E0290F2A65
:1013C0000310003003180130A2000310003003188E
:1013D0000130A3005830A4000230A50002300A16E4
:1013E0008A1165270A128A1503100030031801308C
:1013F00083120313A200A3010314A30D5830A40009
:101400000230A50001300A168A1165270A128A15D2
:101410006C300A168A114B250A128A15FF2F0618FE
:10142000122A132A5E2A8618162A172A5E2A0619F5
:101430001A2A1B2A5E2A861D1E2A1F2A5E2A061ABF
:10144000222A232A5E2A861A262A272A5E2A851815
:101450002A2A2B2A5E2A851A2E2A2F2A5E2A031070
:10146000003003180130A2000310003003180130CF
:10147000A3005830A4000230A50002300A168A11D9
:1014800065270A128A1503100030031801308312F1
:101490000313A200A3010314A30D5830A4000230CB
:1014A000A50001300A168A1165270A128A156C30C8
:1014B0000A168A114B250A128A15FF2F0618612A6F
:1014C000622AAD2A8618652A662AAD2A0619692A73
:1014D0006A2AAD2A861D6D2A6E2AAD2A061E712A39
:1014E000722AAD2A861A752A762AAD2A8518792A93
:1014F0007A2AAD2A851A7D2A7E2AAD2A0310003069
:1015000003180130A2000310003003180130A300BB
:101510005830A4000230A50002300A168A1165274F
:101520000A128A15031000300318013083120313C6
:10153000A200A3010314A30D5830A4000230A5009B
:1015400001300A168A1165270A128A156C300A16AC
:101550008A114B250A128A15FF2F0618B02AB12AC4
:10156000FC2A8618B42AB52AFC2A061DB82AB92AEC
:10157000FC2A861DBC2ABD2AFC2A061AC02AC12ABA
:10158000FC2A861AC42AC52AFC2A8518C82AC92A10
:10159000FC2A851ACC2ACD2AFC2A03100030031815
:1015A0000130A2000310003003180130A300F43012
:1015B000A4000130A50002300A168A1165270A121C
:1015C0008A15031000300318013083120313A200A0
:1015D000A3010314A30D5830A4000230A50001306C
:1015E0000A168A1165270A128A15BC300A168A1152
:1015F0004B250A128A15FF2F0618FF2A002B4B2BAA
:10160000861C032B042B4B2B061D072B082B4B2B67
:10161000861D0B2B0C2B4B2B061A0F2B102B4B2B39
:10162000861A132B142B4B2B8518172B182B4B2B8F
:10163000851A1B2B1C2B4B2B031000300318013079
:10164000A2000310003003180130A300F430A400FE
:101650000130A50002300A168A1165270A128A1580
:10166000031000300318013083120313A200A301FA
:101670000314A30D5830A4000230A50001300A164F
:101680008A1165270A128A1575300A168A114B25A8
:101690000A128A15FF2F06184E2B4F2B9A2B8618ED
:1016A000522B532B9A2B061D562B572B9A2B8619F0
:1016B0005A2B5B2B9A2B061A5E2B5F2B9A2B861AC2
:1016C000622B632B9A2B8518662B672B9A2B851A16
:1016D0006A2B6B2B9A2B0310003003180130A200E9
:1016E0000310003003180130A3009030A400013033
:1016F000A50002300A168A1165270A128A150310FE
:1017000000300318013083120313A200A301031455
:10171000A30D5830A4000230A50001300A168A112A
:1017200065270A128A157D300A168A114B250A127E
:101730008A15FF2F06189D2B9E2BE92B861CA12BAB
:10174000A22BE92B061DA52BA62BE92B8619A92B6D
:10175000AA2BE92B061AAD2BAE2BE92B861AB12B3F
:10176000B22BE92B8518B52BB62BE92B851AB92B93
:10177000BA2BE92B0310003003180130A20003102C
:10178000003003180130A3002C30A4000130A50064
:1017900002300A168A1165270A128A1503100030D2
:1017A0000318013083120313A200A3010314A30D35
:1017B0005830A4000230A50001300A168A116527AE
:1017C0000A128A1585300A168A114B250A128A15C3
:1017D000FF2F061CEC2BED2B382C861CF02BF12B4D
:1017E000382C061DF42BF52B382C8619F82BF92BE9
:1017F000382C061AFC2BFD2B382C861A002C012CB9
:10180000382C8518042C052C382C851A082C092C0A
:10181000382C0310003003180130A20003100030F0
:1018200003180130A300C830A4000030A500023026
:101830000A168A1165270A128A1503100030031848
:10184000013083120313A200A3010314A30D583027
:10185000A4000230A50001300A168A1165270A1279
:101860008A158D300A168A114B250A128A15FF2F08
:1018700006183B2C3C2C872C861C3F2C402C872C9C
:101880000619432C442C872C8619472C482C872C6E
:10189000061A4B2C4C2C872C861A4F2C502C872C3C
:1018A0008518532C542C872C851A572C582C872C90
:1018B0000310003003180130A20003100030031899
:1018C0000130A3006430A4000030A50002300A16E5
:1018D0008A1165270A128A15031000300318013097
:1018E00083120313A200A3010314A30D5830A40014
:1018F0000230A50001300A168A1165270A128A15DE
:1019000095300A168A114B250A128A15FF2F061CDC
:101910008A2C8B2CD62C861C8E2C8F2CD62C061920
:10192000922C932CD62C8619962C972CD62C061AF2
:101930009A2C9B2CD62C861A9E2C9F2CD62C851844
:10194000A22CA32CD62C851AA62CA72CD62C03109F
:10195000003003180130A2000310003003180130DA
:10196000A3000030A4000030A50002300A168A113E
:1019700065270A128A1503100030031801308312FC
:101980000313A200A3010314A30D5830A4000230D6
:10199000A50001300A168A1165270A128A159D30A2
:1019A0000A168A114B250A128A15FF2F061CD92CFC
:1019B000DA2C252D8618DD2CDE2C252D0619E12CA0
:1019C000E22C252D8619E52CE62C252D061AE92C6E
:1019D000EA2C252D861AED2CEE2C252D8518F12CC0
:1019E000F22C252D851AF52CF62C252D0310003010
:1019F00003180130A2000310003003180130A300C7
:101A00000030A4000030A50002300A168A116527B4
:101A10000A128A15031000300318013083120313D1
:101A2000A200A3010314A30D5830A4000230A500A6
:101A300001300A168A1165270A128A15A5300A167E
:101A40008A114B250A128A15FF2F0618282D292DD9
:101A5000742D86182C2D2D2D742D0619302D312D19
:101A6000742D8619342D352D742D061E382D392DE3
:101A7000742D861E3C2D3D2D742D8518402D412D35
:101A8000742D851A442D452D742D03100030031834
:101A90000130A2000310003003180130A3005830B9
:101AA000A4000230A50002300A168A1165270A1226
:101AB0008A15031000300318013083120313A200AB
:101AC000A3010314A30DF430A4000130A5000130DC
:101AD0000A168A1165270A128A15AD300A168A116C
:101AE0004B250A128A15FF2F0618772D782DC32D46
:101AF00086187B2D7C2DC32D06197F2D802DC32D9F
:101B00008619832D842DC32D061E872D882DC32D68
:101B1000861E8B2D8C2DC32D851C8F2D902DC32DB6
:101B2000851A932D942DC32D031000300318013016
:101B3000A2000310003003180130A3005830A400A5
:101B40000230A50002300A168A1165270A128A158A
:101B5000031000300318013083120313A200A30105
:101B60000314A30DF430A4000130A50001300A16BF
:101B70008A1165270A128A1536300A168A114B25F2
:101B80000A128A15FF2F0618C62DC72D122E861889
:101B9000CA2DCB2D122E0619CE2DCF2D122E861921
:101BA000D22DD32D122E061AD62DD72D122E861EEB
:101BB000DA2DDB2D122E8518DE2DDF2D122E851A43
:101BC000E22DE32D122E0310003003180130A20085
:101BD0000310003003180130A3005830A400023075
:101BE000A50002300A168A1165270A128A15031009
:101BF00000300318013083120313A200A301031461
:101C0000A30D9030A4000130A50001300A168A11FE
:101C100065270A128A153F300A168A114B250A12C7
:101C20008A15FF2F0618152E162E612E8618192ECE
:101C30001A2E612E06191D2E1E2E612E8619212E9A
:101C4000222E612E061A252E262E612E861E292E64
:101C50002A2E612E851C2D2E2E2E612E851A312EB8
:101C6000322E612E0310003003180130A200031041
:101C7000003003180130A3005830A4000230A50042
:101C800002300A168A1165270A128A1503100030DD
:101C90000318013083120313A200A3010314A30D40
:101CA0002C30A4000130A50001300A168A116527E6
:101CB0000A128A1548300A168A114B250A128A150B
:101CC000FF2F0618642E652EB02E8618682E692EFA
:101CD000B02E06196C2E6D2EB02E8619702E712E18
:101CE000B02E061A742E752EB02E861E782E792EE2
:101CF000B02E851C7C2E7D2EB02E851E802E812E32
:101D0000B02E0310003003180130A2000310003081
:101D100003180130A3005830A4000230A50002309F
:101D20000A168A1165270A128A1503100030031853
:101D3000013083120313A200A3010314A30DC830C2
:101D4000A4000030A50001300A168A1165270A1286
:101D50008A1551300A168A114B250A128A15FF2F4F
:101D60000618B32EB42EFF2E8618B72EB82EFF2ECF
:101D70000619BB2EBC2EFF2E8619BF2EC02EFF2E9D
:101D8000061AC32EC42EFF2E861AC72EC82EFF2E6B
:101D9000851CCB2ECC2EFF2E851ACF2ED02EFF2EBB
:101DA0000310003003180130A200031000300318A4
:101DB0000130A3005830A4000230A50002300A16FA
:101DC0008A1165270A128A150310003003180130A2
:101DD00083120313A200A3010314A30D6430A40013
:101DE0000030A50001300A168A1165270A128A15EB
:101DF0005A300A168A114B250A128A15FF2F061827
:101E0000022F032F4E2F8618062F072F4E2F06194D
:101E10000A2F0B2F4E2F86190E2F0F2F4E2F061A1B
:101E2000122F132F4E2F861A162F172F4E2F851C69
:101E30001A2F1B2F4E2F851E1E2F1F2F4E2F0310C4
:101E4000003003180130A2000310003003180130E5
:101E5000A3005830A4000230A50002300A168A11EF
:101E600065270A128A150310003003180130831207
:101E70000313A200A3010314A30D0030A40000303B
:101E8000A50001300A168A1165270A128A152C301E
:101E90000A168A114B250A128A15FF2F0618512F90
:101EA000522F9D2F8618552F562F9D2F0619592FCB
:101EB0005A2F9D2F86195D2F5E2F9D2F061A612F99
:101EC000622F9D2F861A652F662F9D2F8518692FEB
:101ED0006A2F9D2F851E6D2F6E2F9D2F03100030B2
:101EE00003180130A2000310003003180130A300D2
:101EF0005830A4000230A50002300A168A11652766
:101F00000A128A15031000300318013083120313DC
:101F1000A200A3010314A30D0030A4000030A5000B
:101F200001300A168A1165270A128A1563300A16CB
:101F30008A114B250A128A15FF2F0618A02FA12FF0
:101F4000FF2F8618A42FA52FFF2F0619A82FA92F22
:101F5000FF2F8619AC2FAD2FFF2F061AB02FB12FF0
:101F6000FF2F861AB42FB52FFF2F8518B82FB92F42
:101F7000FF2F851ABC2FBD2FFF2FA2010314A20D26
:101F80000310003003180130A3003C08A501A50789
:101F90003B08A401A40701300A168A1165270A121A
:101FA0008A1583120313A2010314A20DA3010314C3
:101FB000A30D3E08A501A5073D08A401A407023012
:101FC0000A168A1165270A128A15B5300A168A116F
:101FD0004B250A128A15FF2FFF2FFF2FFF2FFF2FF0
:101FE000FF2FFF2FFF2FFF2FFF2FFF2FFF2FFF2F81
:101FF000FF2FFF2FFF2FFF2FFF2FFF2FFF2F080097
:1029DC00831203130C1086170800831203130910BB
:1029EC0007120800F4008312031308080F3974044B
:1029FC0088000800F5010314F50D00300A128A1541
:102A0C003D200A168A110800F40074180E2D122DA0
:102A1C00831203130915152D8312031309110800D2
:102A2C00F40074181A2D1E2D831203130814212D73
:102A3C008312031308100800C03083120313A40080
:102A4C002408F50000300A128A153D200A168A1156
:102A5C0008000A168A11F3240A168A11831203132A
:102A6C00891487123C2D891087163C2D080083127F
:102A7C000313A5002508A4002408F50001300A1250
:102A8C008A153D200A168A11080083120313A80028
:102A9C000A168A1100250A168A11831203132808B4
:102AAC000A168A1132260A168A1108008316031791
:102ABC008711831603139A0118153330990083126A
:102ACC000313981718168316031398161812080078
:102ADC00831203138711880187150530F400003029
:102AEC00F5000A128A1500200A168A1183120313A4
:102AFC0087110800831203138E018F01901190141B
:102B0C001012901210110C10831603130C140B17C7
:102B1C008B1783120313101408000C1C962D972D81
:102B2C009D2D0A168A11EE240A168A119D2D730802
:102B3C0083120313FF0072088A0071088400700866
:102B4C008300FE0E7E0E0900831603130F178F16DB
:102B5C000F168312031385018601870188018901F1
:102B6C003F308316031385003F3086008130870089
:102B7C00880189010800FF30831603139200831229
:102B8C0003139210121495019B011215971317132E
:102B9C009712171297151715971017109D121D12D3
:102BAC009D151D159D101D100800F601F701F8016B
:102BBC00B101B201B301B401B501B601B701B8015D
:102BCC00B901BA01BB01BC01BD01BE010A128A11D7
:102BDC00FC270A168A11F90083010A168A11EB2EBA
:102BEC00831203139F171F138316031708148810DF
:102BFC0008118811081288120813881309108910FB
:102C0C000911891109128912831603139F179F1238
:102C1C001F12831203131F1008007408831203136E
:102C2C00A00004300310A00DFF3E031D182E303001
:102C3C002005A1001708CF39210497007508A100C1
:102C4C007408A00002300310A10CA00CFF3E031D61
:102C5C00292E20089500080083120313A7006B2E61
:102C6C00270884000A128A1115200A168A110A3ABA
:102C7C000319412E422E4F2E270884000A128A1166
:102C8C0015200A168A110D3A031D4D2E4E2E552E67
:102C9C004F2E0A168A1122250A168A11642E8312C7
:102CAC000313270884000A128A1115200A168A11A8
:102CBC000A168A113D250A168A11642E01308312D8
:102CCC000313A6002608A7076B2E270884000A12F8
:102CDC008A1115200A168A110038031D762E772EBC
:102CEC00362E782E080001300A168A110A250A168B
:102CFC008A11273083120313A500F530A400A40B0E
:102D0C00852EA50B852E0310003003180130F90019
:102D1C00383083120313A4002408F50000300A1283
:102D2C008A153D200A168A11383083120313A40029
:102D3C002408F50000300A128A153D200A168A1163
:102D4C00383083120313A4002408F50000300A1253
:102D5C008A153D200A168A11283083120313A40009
:102D6C002408F50000300A128A153D200A168A1133
:102D7C00F9010314F90D283083120313A40024085D
:102D8C00F50000300A128A153D200A168A11063009
:102D9C0083120313A4002408F50000300A128A15CC
:102DAC003D200A168A110C3083120313A400240848
:102DBC00F50000300A128A153D200A168A110A16EF
:102DCC008A1100250A168A1108000A168A11AA25EA
:102DDC000A168A110A168A11C1250A168A110A16B0
:102DEC008A116E250A168A110A168A11F6250A16F8
:102DFC008A110A168A115C250A168A110A168A117A
:102E0C0080250A168A110A168A1179260A168A1141
:102E1C0083120313A2010314A20D03100030031834
:102E2C000130A3000030A4000030A50001300A16C8
:102E3C008A1165270A168A1183120313A20103143F
:102E4C00A20DA3010314A30D0030A4000030A500B3
:102E5C0002300A168A1165270A168A1101300A16E1
:102E6C008A114B250A168A11E830F4000330F5005C
:102E7C000A128A1500200A168A1102300A128A11C7
:102E8C00D5270A168A111E300A168A114B250A16E6
:102E9C008A110A128A15EF200A168A11C3300A16F3
:102EAC008A114B250A168A1105300A128A11D52768
:102EBC000A168A11612F612F0A128A1112288312A5
:102ECC000313A8002808013A031D6D2F6E2FB22F93
:102EDC00A208031D722F732F752F0910942F22082F
:102EEC00013A031D7A2F7B2F942F091485130D3073
:102EFC00A700FB30A600A60B812FA70B812F862FD6
:102F0C008312031385171A30A700F830A600A60BFE
:102F1C008D2FA70B8D2F6400942F942F83120313E6
:102F2C00A308031D9A2F9B2F9D2F8914A62F2308CE
:102F3C00013A031DA22FA32FA62F8910A62FA62F6F
:102F4C002508F501F5072408F401F4070A168A117F
:102F5C0013260A168A11FF2F831203132808023A2C
:102F6C00031DB92FBA2FFF2FA208031DBE2FBF2F91
:102F7C00C12F0712E02F2208013A031DC62FC72FBD
:102F8C00E02F071685130D30A700FB30A600A60B0B
:102F9C00CD2FA70BCD2FD22F8312031385171A30E9
:102FAC00A700F830A600A60BD92FA70BD92F6400C9
:102FBC00E02FE02F83120313A308031DE62FE72F46
:102FCC00E92F8716F22F2308013A031DEE2FEF2F5E
:102FDC00F22F8712F22FF22F2508F501F50724089E
:102FEC00F401F4070A128A151E200A168A11FF2F03
:042FFC00FF2F08009B
:02400E00E42CA0
:1042000001000000000000000000000000000000AD
:00000001FF
