:100000000A128A1112280134FE000308F0000408C5
:10001000F1000A08F200831203137F08F3000A12AA
:100020008A156F2D0A128A15B72D00308A00040830
:10003000840A8207003420344D344334343430345D
:10004000533445340A3420344C345334413430343E
:1000500038340034533457343134203474346F34EA
:100060000A345334743461347234743421340034B7
:10007000203420344C3469346E3465340A344634C8
:100080006F346C346C346F3477340034203466341D
:100090006F347234773461347234643400346C34C5
:1000A00065346634743431342034203400342034E0
:1000B00072346934673468347434313400347334DE
:1000C00074346F3470342034203400346C3465342C
:1000D000663474342034203400342034723469346B
:1000E000673468347434003444346F346E346534A7
:1000F000213400347434753472346E340034831215
:100100000313BA000310003003180130BB000310C2
:10011000003003180130BC000030BD000030BE00CC
:10012000A2010314A20D0310003003180130A30034
:100130004D08A501A5074C08A401A40701300A1227
:100140008A11D2260A128A1183120313A201031400
:10015000A20DA3010314A30D4F08A501A5074E0886
:10016000A401A40702300A128A11D2260A128A11A7
:10017000932A0A128A1572260A128A1175088312A6
:100180000313BE01BE077408BD01BD07C0300A12CB
:100190008A1529250A128A11831203133E08A80121
:1001A000A8073D08A701A70704300A128A115124A5
:1001B0000A128A110130831203133E0272300319AE
:1001C0003D02031CE428E5281D2901303E02FF30D2
:1001D00003193D020318ED28EE281D2903100030F5
:1001E00003180130A2000310003003180130A300EF
:1001F0005830A4000230A50002300A128A11D2261B
:100200000A128A11031000300318013083120313FD
:10021000A200A3010314A30D5830A4000230A500CE
:1002200001300A128A11D2260A128A112C300A12BF
:100230008A11EF270A128A11672A013083120313E9
:100240003E02FE3003193D02031C2729282960299C
:1002500002303E029F3003193D0203183029312934
:1002600060290310003003180130A2000310003091
:1002700003180130A3005830A4000230A50002305A
:100280000A128A11D2260A128A11031000300318AA
:10029000013083120313A200A3010314A30D9030B5
:1002A000A4000130A50001300A128A11D2260A12D8
:1002B0008A1153300A128A11EF270A128A11672A0B
:1002C0000230831203133E029E3003193D02031CC9
:1002D0006A296B29A32903303E02743003193D02B9
:1002E000031873297429A32903100030031801305F
:1002F000A2000310003003180130A3005830A400FE
:100300000230A50002300A128A11D2260A128A117E
:10031000031000300318013083120313A200A3015D
:100320000314A30DC830A4000030A50001300A1248
:100330008A11D2260A128A113D300A128A11EF2739
:100340000A128A11672A0030831203133E02AA3070
:1003500003193D02031CAD29AE29E62901303E02F6
:10036000733003193D020318B629B729E629031093
:10037000003003180130A2000310003003180130D0
:10038000A3009030A4000130A50002300A128A11A7
:10039000D2260A128A11031000300318013083128A
:1003A0000313A200A3010314A30D5830A4000230CC
:1003B000A50001300A128A11D2260A128A114C3085
:1003C0000A128A11EF270A128A11672A0030831253
:1003D00003133E02AB3003193D020318F029F12943
:1003E000202A0310003003180130A200031000304F
:1003F00003180130A300C830A4000030A50002306B
:100400000A128A11D2260A128A1103100030031828
:10041000013083120313A200A3010314A30D58306B
:10042000A4000230A50001300A128A11D2260A1255
:100430008A1135300A128A11EF270A128A11672AA7
:100440000330831203133E02853003193D02031C5F
:100450002A2A2B2A672A003083160313141A013024
:1004600083120313B8003808A200031000300318E9
:100470000130A3000030A4000030A50002300A12B1
:100480008A11D2260A128A11003083160313141A15
:10049000013083120313B8003808A200A30103142B
:1004A000A30D0030A4000030A50001300A128A110B
:1004B000D2260A128A1145300A128A11EF270A122F
:1004C0008A11672A672A672A672A672A672A831296
:1004D0000313061C6C2A6D2A932A851E702A712A22
:1004E000932A3A08FF3EB800FF3003180030B900E5
:1004F0003908803A803C031D7F2A38083B02031CE0
:10050000822A832A862A9C2A9C2A862A83120313FB
:1005100006188B2A8C2A862A8D2A0130B8003808C2
:10052000BB07932A932A831203133A083B02031C46
:100530009A2A9B2AB9289C2A0310003003180130FC
:1005400083120313BC0065303C02031CA82AA92AAD
:10055000AB2A502C502C0A128A1572260A128A11C4
:10056000750883120313BE01BE077408BD01BD07E1
:1005700001303E02723003193D02031CC02AC12A19
:10058000F92A01303E02FF3003193D020318C92A3F
:10059000CA2AF92A0310003003180130A200031000
:1005A000003003180130A3005830A4000230A50029
:1005B00002300A128A11D2260A128A110310003060
:1005C0000318013083120313A200A3010314A30D27
:1005D0005830A4000230A50001300A128A11D22638
:1005E0000A128A112C300A128A11EF270A128A1174
:1005F000432C0130831203133E02FE3003193D02E7
:10060000031C032B042B3C2B02303E029F300319AA
:100610003D0203180C2B0D2B3C2B0310003003184C
:100620000130A2000310003003180130A30058303D
:10063000A4000230A50002300A128A11D2260A1242
:100640008A11031000300318013083120313A20033
:10065000A3010314A30D9030A4000130A5000130C4
:100660000A128A11D2260A128A1153300A128A11EA
:10067000EF270A128A11432C0230831203133E0221
:100680009E3003193D02031C462B472B7F2B033062
:100690003E02743003193D0203184F2B502B7F2B61
:1006A0000310003003180130A200031000300318BB
:1006B0000130A3005830A4000230A50002300A1215
:1006C0008A11D2260A128A11031000300318013051
:1006D00083120313A200A3010314A30DC830A400C6
:1006E0000030A50001300A128A11D2260A128A119E
:1006F0003D300A128A11EF270A128A11432C00306A
:10070000831203133E02AA3003193D02031C892BF6
:100710008A2BC22B01303E02733003193D020318AD
:10072000922B932BC22B0310003003180130A20030
:100730000310003003180130A3009030A4000130F2
:10074000A50002300A128A11D2260A128A11031059
:1007500000300318013083120313A200A301031415
:10076000A30D5830A4000230A50001300A128A11EE
:10077000D2260A128A114C300A128A11EF270A1265
:100780008A11432C0030831203133E02AB3003194D
:100790003D020318CC2BCD2BFC2B0310003003188B
:1007A0000130A2000310003003180130A300C8304C
:1007B000A4000030A50002300A128A11D2260A12C3
:1007C0008A11031000300318013083120313A200B2
:1007D000A3010314A30D5830A4000230A50001307A
:1007E0000A128A11D2260A128A1135300A128A1187
:1007F000EF270A128A11432C0330831203133E029F
:10080000853003193D02031C062C072C432C0030B5
:1008100083160313141A013083120313B800380827
:10082000A2000310003003180130A3000030A40020
:100830000030A50002300A128A11D2260A128A114B
:10084000003083160313141A013083120313B80007
:100850003808A200A3010314A30D0030A400003047
:10086000A50001300A128A11D2260A128A114530D7
:100870000A128A11EF270A128A11432C432C432CA7
:10088000432C432C432C013083120313B800380847
:10089000BC0765303C02031C4E2C4F2CAB2A502C5D
:1008A000080083120313B7002D3084004230A900E2
:1008B0000408AA000A30AB0029088400831300084A
:1008C000AC00A90A2A0884002C088000AA0AAB0BF5
:1008D0005C2C1030A0002730A1002808A301A3073A
:1008E0002708A201A2070A128A153C270A128A11B8
:1008F000831203132108B601B6072008B501B50716
:100900001030A0002730A1002808A301A307270862
:10091000A201A2070A128A15AF260A128A118312AF
:1009200003132108B401B4072008B301B307E8306A
:10093000A0000330A1003408A301A3073308A201DB
:10094000A2070A128A15AF260A128A11831203130C
:100950002108B201B2072008B101B107E830A000B8
:100960000330A1003408A301A3073308A201A207A2
:100970000A128A153C270A128A11831203132108CE
:10098000B401B4072008B301B3076430A0000030FD
:10099000A1003208A301A3073108A201A2070A128D
:1009A0008A15AF260A128A11831203132108B00197
:1009B000B0072008AF01AF076430A0000030A100ED
:1009C0003208A301A3073108A201A2070A128A155F
:1009D0003C270A128A11831203132108B201B207BD
:1009E0002008B101B1070A30A0000030A100300892
:1009F000A301A3072F08A201A2070A128A15AF2696
:100A00000A128A11831203132108AE01AE072008CF
:100A1000AD01AD070A30A0000030A1003008A301ED
:100A2000A3072F08A201A2070A128A153C270A125F
:100A30008A11831203132108B001B0072008AF0107
:100A4000AF0706303702031C262D272D2C2D05302D
:100A5000A9002908B7002C2DB708031D302D312D12
:100A6000332D4B2D4B2D3708A9002907FE3E2D3E77
:100A7000840083130008303E0A128A151B250A12CF
:100A80008A11013083120313B702B708031D492DE1
:100A90004A2D332D4B2D0800031000300318013070
:100AA00083120313C1000310003003180130C0008B
:100AB0000A128A150D250A128A1110300A128A119B
:100AC000EF270A128A116430F4000030F5000A1290
:100AD0008A15EF250A128A116D2D83120313051949
:100AE000722D732D6D2D742D0A30F4000030F50039
:100AF0000A128A15EF250A128A117E2D831203131A
:100B0000051D832D842D7E2D852D1F300A128A11FF
:100B1000EF270A128A1101300A128A154B260A128F
:100B20008A11043083120313BF003F08C100F52D62
:100B300003300A128A117F200A128A1102300A1227
:100B40008A154B260A128A11C830F4000030F500CD
:100B50000A128A15EF250A128A1160300A128A11C8
:100B6000EF270A128A110310003003180130831294
:100B70000313A2000310003003180130A300F43067
:100B8000A4000130A50002300A128A11D2260A12EE
:100B90008A11031000300318013083120313A200DE
:100BA0000310003003180130A300F430A40001301A
:100BB000A50001300A128A11D2260A128A11E12DEB
:100BC000E12D0A128A1572260A128A110230750264
:100BD000BC30031974020318EE2DEF2DE12DF02D1A
:100BE000013083120313C102F52DC108031DF92D35
:100BF000FA2D982DFB2DA2010314A20D0310003035
:100C000003180130A3000030A4000030A50001301B
:100C10000A128A11D2260A128A1183120313A20120
:100C20000314A20DA3010314A30D0030A40000308F
:100C3000A50002300A128A11D2260A128A1108006F
:100C400083120313A3000310003003180130A20025
:100C50000808A0002008A2007908013A031D312EDF
:100C6000322E9D2E23080A128A15F4240A128A11A4
:100C70007508F0390A128A15D6240A128A11003032
:100C80000A128A15E8240A128A1106308312031305
:100C9000A1003030A000A00B4B2EA10B4B2E640006
:100CA00001300A128A15E8240A128A1103308312CD
:100CB0000313A1009730A000A00B5C2EA10B5C2EAB
:100CC000612E8312031323080A128A15F4240A12D0
:100CD0008A11750883120313A00003300310A00DBE
:100CE000FF3E031D6E2E0310200D0A128A15D62416
:100CF0000A128A1100300A128A15E8240A128A118F
:100D0000063083120313A1003030A000A00B862E02
:100D1000A10B862E640001300A128A15E8240A12FB
:100D20008A11033083120313A1009730A000A00B97
:100D3000972EA10B972E9C2ECD2E831203132308E2
:100D40000A128A15F4240A128A1175080A128A15E1
:100D5000D6240A128A1100300A128A15E8240A12CF
:100D60008A11063083120313A1003030A000A00BBB
:100D7000B72EA10BB72E640001300A128A15E824A1
:100D80000A128A11033083120313A1009730A000C6
:100D9000A00BC82EA10BC82ECD2E83120313220840
:100DA0008800080083120313A8002808013A031DD5
:100DB000DA2EDB2E1F2FA208031DDF2EE02EE22EDF
:100DC0000910012F2208013A031DE72EE82E012FFA
:100DD000091485130D30A700FB30A600A60BEE2EDC
:100DE000A70BEE2EF32E8312031385171A30A700DC
:100DF000F830A600A60BFA2EA70BFA2E6400012FDE
:100E0000012F83120313A308031D072F082F0A2F96
:100E10008914132F2308013A031D0F2F102F132FAE
:100E20008910132F132F2508F501F5072408F40165
:100E3000F4070A128A150D260A128A116C2F8312E2
:100E400003132808023A031D262F272F6C2FA20810
:100E5000031D2B2F2C2F2E2F07124D2F2208013A66
:100E6000031D332F342F4D2F071685130D30A70088
:100E7000FB30A600A60B3A2FA70B3A2F3F2F831269
:100E8000031385171A30A700F830A600A60B462FCB
:100E9000A70B462F64004D2F4D2F83120313A30879
:100EA000031D532F542F562F87165F2F2308013A07
:100EB000031D5B2F5C2F5F2F87125F2F5F2F25088D
:100EC000F501F5072408F401F4070A128A152C2607
:100ED0000A128A116C2F6C2F08000A128A158625B7
:100EE0000A128A110A128A159D250A128A110A12FB
:100EF0008A154A250A128A110A128A15D2250A125F
:100F00008A110A128A1538250A128A110A128A15BC
:100F10005C250A128A110A128A158E270A128A1172
:100F200083120313A2010314A20D0310003003184F
:100F30000130A3000030A4000030A50001300A12E7
:100F40008A11D2260A128A1183120313A2010314F2
:100F5000A20DA3010314A30D0030A4000030A500CE
:100F600002300A128A11D2260A128A1101300A129C
:100F70008A11EF270A128A11E830F4000330F500D5
:100F80000A128A15EF250A128A1102300A128A15EE
:100F90004B260A128A111E300A128A11EF270A12F2
:100FA0008A110A128A15DE240A128A118312031387
:100FB0001F140A128A114C250A128A115A300A1279
:100FC0008A11EF270A128A1105300A128A154B2658
:100FD0000A128A11EB2FEB2F0A128A1112288312A0
:100FE0000313A8000A128A15DE240A128A1183123A
:100FF000031328080A128A15F5260A128A11080016
:10199800831203130C10861708008312031309100F
:1019A80007120800F4008312031308080F3974049F
:1019B80088000800F5010314F50D00300A128A1199
:1019C80020260A128A150800F4007418EC2CF02C52
:1019D800831203130915F32C83120313091108004A
:1019E800F4007418F82CFC2C831203130814FF2C31
:1019F8008312031308100800C03083120313A400D5
:101A08002408F50000300A128A1120260A128A15C5
:101A180008000A128A15D1240A128A1583120313A0
:101A2800891487121A2D891087161A2D0800831217
:101A38000313A5002508A4002408F50001300A12A4
:101A48008A1120260A128A15080083120313A5009A
:101A580025088038A4002408F50000300A128A11ED
:101A680020260A128A150800831603178711831681
:101A780003139A011815333099008312031398172A
:101A880018168316031398161812080083120313E6
:101A98008711880187150530F4000030F5000A1217
:101AA8008A15EF250A128A15831203138711080075
:101AB800831203138E018F0190119014101290124B
:101AC80010110C10831603130C140B178B178312A9
:101AD8000313101408000C1C722D732D792D0A1293
:101AE8008A15CC240A128A15792D730883120313D8
:101AF800FF0072088A007108840070088300FE0ED7
:101B08007E0E0900831603130F178F160F16831204
:101B18000313850186018701880189013F308316F7
:101B2800031385003F3086008130870088018901D2
:101B38000800FF30831603139200831203139210D8
:101B4800121495019B011215971317139712171268
:101B580097151715971017109D121D129D151D1515
:101B68009D101D100800F601F701F801C201C3011C
:101B7800C401C501C601C701C801C901CA01CB0119
:101B8800CC01CD01CE01CF010A128A1103200A121D
:101B98008A15F90083010A128A116D2F8312031323
:101BA8009F171F138316031708148810081188112C
:101BB800081288120813881309108910091189114D
:101BC80009128912831603139F179F121F1283127B
:101BD80003131F100800FB2D033083120313A10009
:101BE8009730A000A00BF62DA10BF62DFB2D013090
:101BF800F4020030031CF503F502FF307506031DDF
:101C0800072EFF307406031D0A2E0B2EF02D0C2E06
:101C18000800740883120313A00004300310A00DF9
:101C2800FF3E031D122E30302005A1001708CF39C2
:101C3800210497007508A1007408A0000230031061
:101C4800A10CA00CFF3E031D232E200895000800C0
:101C5800740883120313A00004300310A00DFF3E84
:101C6800031D312E30302005A1001D08CF39210475
:101C78009D007508A1007408A00002300310A10C93
:101C8800A00CFF3E031D422E20089B000800831273
:101C98000313A200662E86173230F4000030F500D8
:101CA8000A128A15EF250A128A158312031386135E
:101CB8003230F4000030F5000A128A15EF250A12B6
:101CC8008A15662E013083120313A2022208FF3AF6
:101CD800031D6F2E702E4F2E712E080000308312B8
:101CE8000313A2000030A3009F121F129F111F119F
:101CF8000D30A100FB30A000A00B802EA10B802E80
:101D0800852E831203139F14892E9F188C2E8D2ED7
:101D1800892E8E2E1E08A000A1010830FF00031096
:101D2800A00DA10DFF0B932E2008A2002108A300EF
:101D3800831603131E08831203132207A200230825
:101D48000318230AA3002308F501F5072208F40164
:101D5800F407AE2E08008312031321082004031988
:101D6800B62EB72EED2EF5010314F50DC72E013052
:101D78000310A00DA10DFF3E031DBC2E0130F40081
:101D88007408F507C72EA11FCA2ECB2EBB2ECD2E49
:101D9800CD2E21082302031DD32E20082202031C66
:101DA800D62ED72EDE2E2008A2022108031CA3035C
:101DB800A302DE2E01300310A10CA00CFF3E031D70
:101DC800DF2E0130F502031DEA2EEB2ECD2EED2E6F
:101DD800ED2E2308A101A1072208A001A007F42ED7
:101DE800080083120313A7002E2F270884000A1265
:101DF8008A1115200A128A150A3A0319042F052F89
:101E0800122F270884000A128A1115200A128A152F
:101E18000D3A031D102F112F182F122F0A128A1591
:101E280000250A128A15272F831203132708840016
:101E38000A128A1115200A128A150A128A151B25F8
:101E48000A128A15272F013083120313A6002608C9
:101E5800A7072E2F270884000A128A1115200A12B4
:101E68008A150038031D392F3A2FF92E3B2F080009
:101E7800003083120313A5000030A60021082004B7
:101E88000319472F482F862FA4010314A40D582F98
:101E980001300310A00DA10DFF3E031D4D2F013091
:101EA800F4007408A407582FA11F5B2F5C2F4C2F38
:101EB8005E2F5E2F01300310A50DA60DFF3E031DFA
:101EC8005F2F21082302031D6B2F20082202031C09
:101ED8006E2F6F2F772F2008A2022108031CA3035F
:101EE800A3022514772F01300310A10CA00CFF3E8C
:101EF800031D782F0130A402031D832F842F5E2F2A
:101F0800862F862F2608A101A1072508A001A00772
:101F18008D2F080001300A128A15E8240A128A1542
:101F2800273083120313A500F530A400A40B9A2FC1
:101F3800A50B9A2F0310003003180130F900383030
:101F480083120313A4002408F50000300A128A1132
:101F580020260A128A15383083120313A400240895
:101F6800F50000300A128A1120260A128A15383024
:101F780083120313A4002408F50000300A128A1102
:101F880020260A128A15283083120313A400240875
:101F9800F50000300A128A1120260A128A15F90162
:101FA8000314F90D283083120313A4002408F50044
:101FB80000300A128A1120260A128A150630831266
:101FC8000313A4002408F50000300A128A11202601
:101FD8000A128A150C3083120313A4002408F50092
:101FE80000300A128A1120260A128A150A128A1546
:081FF800DE240A128A1508001C
:02400E00E42CA0
:1042000001000000000000000000000000000000AD
:00000001FF
