:100000000A128A1112280134FE00030EF0000408BF
:10001000F1000A08F200831203137F08F3000A12AA
:100020008A11D82F0A128A118A2F83120313AA0168
:100030000A128A15D7270A128A110A128A114F2723
:100040000A128A1183120313A9002908AA002A0898
:10005000103A03192C282D283A282A08083A03199F
:10006000322833283A282A08183A031D3828392814
:100070005C283A28A201A3015830A4000230A50050
:1000800002300A128A111B230A128A1183120313E7
:10009000A201A301A30A5830A4000230A500013038
:1000A0000A128A111B230A128A113E300A128A117F
:1000B000EF270A128A11B229831203132A08203A61
:1000C0000319632864286B282A08303A031D69281D
:1000D0006A288D286B28A201A3015830A4000230A1
:1000E000A50002300A128A111B230A128A118312F8
:1000F0000313A201A301A30AF430A4000130A50058
:1001000001300A128A111B230A128A1157300A126F
:100110008A11EF270A128A11B229831203132A08BF
:10012000403A0319942895289C282A08603A031D10
:100130009A289B28BE289C28A201A3015830A4001D
:100140000230A50002300A128A111B230A128A11FA
:1001500083120313A201A301A30A9030A40001306B
:10016000A50001300A128A111B230A128A112C30B1
:100170000A128A11EF270A128A11B2298312031375
:100180002A08803A0319C528C628CD282A08C03A6B
:10019000031DCB28CC28EF28CD28A201A30158307D
:1001A000A4000230A50002300A128A111B230A1291
:1001B0008A1183120313A201A301A30AC830A40069
:1001C0000030A50001300A128A111B230A128A117D
:1001D00035300A128A11EF270A128A11B2298312C6
:1001E00003132A08043A0319F628F728FE282A08D8
:1001F0000C3A031DFC28FD282029FE28A201A3019A
:10020000F430A4000130A50002300A128A111B2329
:100210000A128A1183120313A201A301A30A583000
:10022000A4000230A50001300A128A111B230A1211
:100230008A115F300A128A11EF270A128A11B22935
:10024000831203132A08063A0319272928292F297C
:100250002A08023A031D2D292E2951292F29A201EE
:10026000A3019030A4000130A50002300A128A11C7
:100270001B230A128A1183120313A201A301A30AEA
:100280005830A4000230A50001300A128A111B2345
:100290000A128A1147300A128A11EF270A128A11AC
:1002A000B229831203132A08013A0319582959293C
:1002B00060292A08033A031D5E295F2982296029E3
:1002C000A201A301C830A4000030A50002300A1228
:1002D0008A111B230A128A1183120313A201A3019C
:1002E000A30A5830A4000230A50001300A128A1176
:1002F0001B230A128A114F300A128A11EF270A12A1
:100300008A11B22983120313AA08031D8829892997
:10031000B229A201A3010030A4000030A5000230E0
:100320000A128A111B230A128A1183120313A201D3
:10033000A301A30A0030A4000030A50001300A1276
:100340008A111B230A128A1135300A128A11EF27EB
:100350000A128A11B229B229B229B229B229B229C4
:10036000B229B229080083120313B301B2010A12A1
:100370008A157E270A128A1110300A128A11EF2775
:100380000A128A116430F4000030F5000A128A1152
:1003900031270A128A11CC29831203130519D12996
:1003A000D229CC29D3290A30F4000030F5000A12F2
:1003B0008A1131270A128A11DD2983120313051DC0
:1003C000E229E329DD29E4291F300A128A11EF27E7
:1003D0000A128A1101300A128A118B260A128A1116
:1003E000043083120313B1003108B300492A0330EB
:1003F0000A128A11B6230A128A1102300A128A11CD
:100400008B260A128A11C830F4000030F5000A1257
:100410008A1131270A128A116C300A128A11EF27C9
:100420000A128A1183120313A201A301F430A4005B
:100430000130A50002300A128A111B230A128A1108
:1004400083120313A201A301F430A4000130A5001C
:1004500001300A128A111B230A128A11E830F400B3
:100460000330F5000A128A1131270A128A11392A3B
:10047000392A0A128A114F270A128A11183A031DC3
:10048000422A432A392A442A013083120313B30231
:10049000492AB308031D4D2A4E2AF7294F2AA201E3
:1004A000A20AA3010030A4000030A50001300A1206
:1004B0008A111B230A128A1183120313A201A20AB2
:1004C000A301A30A0030A4000030A50002300A12E4
:1004D0008A111B230A128A11080083120313A30036
:1004E000A2010808A0002008A2007908013A031D13
:1004F0007A2A7B2AE62A23080A128A153D270A123D
:100500008A117508F0390A128A1524270A128A11ED
:1005100000300A128A1549270A128A1106308312FE
:100520000313A1003030A000A00B942AA10B942A41
:10053000000001300A128A1549270A128A11033075
:1005400083120313A1009730A000A00BA52AA10BD2
:10055000A52AAA2A8312031323080A128A153D2703
:100560000A128A11750883120313A00003300310C6
:10057000A00DFF3E031DB72A0310200D0A128A1595
:1005800024270A128A1100300A128A1549270A12F2
:100590008A11063083120313A1003030A000A00B93
:1005A000CF2AA10BCF2A000001300A128A15492751
:1005B0000A128A11033083120313A1009730A0009E
:1005C000A00BE02AA10BE02AE52A162B83120313C5
:1005D00023080A128A153D270A128A1175080A1281
:1005E0008A1524270A128A1100300A128A1549270F
:1005F0000A128A11063083120313A1003030A000C2
:10060000A00B002BA10B002B000001300A128A1551
:1006100049270A128A11033083120313A10097306D
:10062000A000A00B112BA10B112B162B831203136F
:1006300022088800080083120313A8002808013A42
:10064000031D232B242B682BA208031D282B292BE9
:100650002B2B09104A2B2208013A031D302B312B7A
:100660004A2B091485130D30A700FB30A600A60BFA
:10067000372BA70B372B3C2B8312031385171A300C
:10068000A700F830A600A60B432BA70B432B0000B6
:100690004A2B4A2B83120313A308031D502B512B03
:1006A000532B89145C2B2308013A031D582B592B1B
:1006B0005C2B89105C2B5C2B2508F501F5072408C1
:1006C000F401F4070A128A11F3260A128A11B52BD3
:1006D000831203132808023A031D6F2B702BB52BCE
:1006E000A208031D742B752B772B0712962B22085B
:1006F000013A031D7C2B7D2B962B071685130D309D
:10070000A700FB30A600A60B832BA70B832B882BFF
:100710008312031385171A30A700F830A600A60B22
:100720008F2BA70B8F2B0000962B962B8312031376
:10073000A308031D9C2B9D2B9F2B8716A82B2308FA
:10074000013A031DA42BA52BA82B8712A82BA82B9D
:100750002508F501F5072408F401F4070A128A11A7
:1007600012270A128A11B52BB52B08008312031326
:10077000AE00AF01B001A201A20AA3014108A50188
:10078000A5074008A401A40701300A128A111B23FF
:100790000A128A1183120313A201A20AA301A30A57
:1007A0004308A501A5074208A401A40702300A12C4
:1007B0008A111B230A128A11FA2B0A128A11152098
:1007C0000A128A11E32B0A128A159E270A128A112D
:1007D00083120313AD002D08AF00C408031DF12BD5
:1007E000F22BE32B0B302F020318F72BF82BE32B04
:1007F000FA2BFA2B831203132E082F02031C012C51
:10080000022CDD2B052C052C052C0A128A15B1278C
:100810000A128A11013A031D0E2C0F2C052C83128B
:100820000313B00147303002031C172C182C1A2C6C
:100830002C2C2C2C0A128A1115200A128A11013034
:1008400083120313AD002D08B00747303002031C9C
:100850002A2C2B2C1A2C2C2C080004308A0004087B
:10086000840A8207003420344D3443343434303425
:10087000533445340A3420344C3453344134303406
:1008800038340034533457343134203474346F34B2
:100890000A3453347434613472347434213400347F
:1008A000203420344C3469346E3465340A34463490
:1008B0006F346C346C346F34773400347234693490
:1008C0006734683474343134203420340034723462
:1008D000693467346834743432342034203400345A
:1008E000203466346F347234773461347234643453
:1008F00000346C346534663474343134203420343C
:1009000000346C346534663474343234203420342A
:1009100000347234693467346834743420342034D9
:1009200000346C346534663474342034203400343C
:1009300044346F346E346534213400347434753487
:1009400072346E3400340A128A11B2260A128A11E5
:100950000A128A11A6270A128A110A128A158C27EE
:100960000A128A110A128A116D270A128A110A12B2
:100970008A15C4270A128A110A128A1115250A1229
:100980008A110A128A15EB270A128A11831203139D
:10099000A201A20AA3010030A4000030A50001308A
:1009A0000A128A111B230A128A1183120313A2014D
:1009B000A20AA301A30A0030A4000030A50002305F
:1009C0000A128A111B230A128A1101300A128A1193
:1009D000EF270A128A11E830F4000330F5000A12FA
:1009E0008A1131270A128A1102300A128A118B26C3
:1009F0000A128A111E300A128A11EF270A128A116E
:100A00000A128A11B3210A128A1166300A128A1157
:100A1000EF270A128A1105300A128A118B260A1250
:100A20008A11112D0A128A11122801300A128A1510
:100A300049270A128A11273083120313A500F530C3
:100A4000A400A40B212DA50B212DF9013830831210
:100A50000313A4002408F50000300A128A116D2245
:100A60000A128A11383083120313A4002408F500F7
:100A700000300A128A116D220A128A11383083124C
:100A80000313A4002408F50000300A128A116D2215
:100A90000A128A11283083120313A4002408F500D7
:100AA00000300A128A116D220A128A11F901F90A1C
:100AB000283083120313A4002408F50000300A1222
:100AC0008A116D220A128A11063083120313A400C0
:100AD0002408F50000300A128A116D220A128A11C8
:100AE0000C3083120313A4002408F50000300A120E
:100AF0008A116D220A128A110A128A1534270A12E3
:100B00008A110800003083120313A3000030A200F2
:100B10000030A1000030A000981C8F2D902DBD2D1D
:100B200018121816C401C40AFF30DF2DDF2DBD2DA9
:100B30000130A007003003180130A107003003186E
:100B40000130A207003003180130A3070030230250
:100B5000031DB42D00302202031DB42D3A302102B2
:100B6000031DB42D99302002031CB72DB82DBD2DC7
:100B7000C401C40AFF30DF2DDF2D8C1EC02DC12D16
:100B8000982DC22D1A08F4007408A400181DC92D50
:100B9000CA2DDB2DD12DD12D1A08F4007408A40024
:100BA000D12D8C1AD42DD52DCC2DC401C40AFF30E3
:100BB000DF2DDF2DDF2DC4012408DF2DDF2D080000
:100BC00083120313A700192E270884000A128A1122
:100BD0002D240A128A110A3A0319EF2DF02DFD2D4A
:100BE000270884000A128A112D240A128A110D3A4C
:100BF000031DFB2DFC2D032EFD2D0A128A155527F2
:100C00000A128A11122E83120313270884000A1273
:100C10008A112D240A128A110A128A1562270A12D1
:100C20008A11122E013083120313A6002608A7078B
:100C3000192E270884000A128A112D240A128A11FB
:100C40000038031D242E252EE42D262E08008312A5
:100C50000313A5000A128A1182250A128A11F500CF
:100C60007508F600831203132508013A031D392E77
:100C70003A2E3C2E5B2E5B2E0A128A1182250A1216
:100C80008A11F5007508F70076084F3A031D492EC2
:100C90004A2E582E77084B3A031D4F2E502E542EB5
:100CA00001305B2E5B2E5B2E00305B2E5B2E5B2EAD
:100CB00000305B2E5B2E080083120313AA002A0863
:100CC0000A128A1570270A128A1183120313260842
:100CD0000A128A1570270A128A1183120313270831
:100CE0000A128A1570270A128A1183120313260822
:100CF0002A07A900270829070A128A1570270A124D
:100D00008A118312031328080A128A1127260A124D
:100D10008A118A2E080083120313A200A62E8617BA
:100D20003230F4000030F5000A128A1131270A121D
:100D30008A118312031386133230F4000030F50059
:100D40000A128A1131270A128A11A62E0130831243
:100D50000313A2022208FF3A031DAF2EB02E8F2EDE
:100D6000B12E08007730831603138F006430F4002F
:100D70000030F5000A128A1131270A128A118316EF
:100D80000317091283120313850186018701880165
:100D900089013F308316031385003E308600813081
:100DA000870088018901080083120313AE00043014
:100DB0002E02031CDC2EDD2EDF2EAE01DF2E443092
:100DC000AB002B08A6002E08AC002C08A7000230B0
:100DD000AD002D08A80045080A128A115C260A12E7
:100DE0008A11F22E0800740883120313A000043045
:100DF0000310A00DFF3E031DF82E30302005A1008A
:100E00001708CF39210497007508A1007408A000C5
:100E100002300310A10CA00CFF3E031D092F200877
:100E200095000800740883120313A0000430031017
:100E3000A00DFF3E031D172F30302005A1001D0817
:100E4000CF3921049D007508A1007408A00002306C
:100E50000310A10CA00CFF3E031D282F20089B00AF
:100E600008003D2F033083120313A1009730A00028
:100E7000A00B382FA10B382F3D2F0130F40200308A
:100E8000031CF503F502FF307506031D492FFF30E3
:100E90007406031D4C2F4D2F322F4E2F0800831246
:100EA00003130610532F0A128A1182250A128A117F
:100EB00083120313A6002608A700C408031D612F90
:100EC000622F532F06140A128A15D7270A128A1185
:100ED0008312031327086C2F0800831203139F1734
:100EE0001F1383160317081488100811881108129D
:100EF0008812081388130910891009118911091221
:100F00008912831603139F179F121F128312031354
:100F10001F100800F601F701F80183133430840034
:100F200045300A128A152C270A128A110A128A15CC
:100F300019270A128A11C5000A128A1103200A12FF
:100F40008A11F90083010A128A11A32CFF3083163B
:100F500003139200831203139210121495019B0144
:100F60001215971317139712171297151715971035
:100F700017109D121D129D151D159D101D100800A6
:100F80008316031387170713061018158316031704
:100F90008715CF308316031399009A018312031328
:100FA0009817831603139816831203131816080054
:100FB0000C1CDB2FDC2FE22F0A128A151A270A12CB
:100FC0008A11E22F730883120313FF0072088A004C
:100FD00071088400700E8300FE0E7E0E09008312DD
:100FE0000313A8000A128A1534270A128A118312E1
:100FF000031328080A128A11E0250A128A11080030
:101E32000134831203130C10861708008312031354
:101E4200091007120800F4008312031308080F395F
:101E520074048800080064008001840A04060319DF
:101E6200003404062D2FF501F50A00300A128A11FA
:101E72006D220A128A150800F4007418412F452FAA
:101E8200831203130814482F831203130810080047
:101E9200F40074184D2F512F831203130915542F78
:101EA2008312031309110800C03083120313A40024
:101EB2002408F50000300A128A116D220A128A15CE
:101EC200080083120313A5002508A4002408F500C6
:101ED20001300A128A116D220A128A150800F400D2
:101EE200722F83160313981C772F782F722F792F56
:101EF200740883120313990008000A128A151F2717
:101F02000A128A1583120313891487128B2F8910E0
:101F120087168B2F080083120313871188018715F8
:101F22000530F4000030F5000A128A1131270A1236
:101F32008A15831203138711080058308312031382
:101F4200AB002B08A600A701A70AA801A80A45080A
:101F52000A128A115C260A128A157608B02F080026
:101F6200583083120313AB002B08A600A7010230DE
:101F7200AC002C08A80045080A128A115C260A1235
:101F82008A15C32F0800831203138E018F0190114B
:101F920090141012901210110C10831603130C14CB
:101FA2000B178B178312031310140800E32F0A1266
:101FB2008A1182250A128A15F50075088312031305
:101FC200A500E32F831203138C1AE82FE92FD82FD1
:101FD200EA2F08000A128A11C0270A128A158312F0
:101FE200031306140A128A15B1270A128A15013040
:0E1FF2000A128A11D4260A128A15FF2F08003F
:02400E00E4ECE0
:1042000001000000000000000000000000000000AD
:00000001FF
